:030000000208945F
:0C089400787FE4F6D8FD75810702087932
:100879007580FF2081FAE4F5A07FFAFE120855750C
:0B088900A0FF7FFA7E0012085580E5FA
:100855007C007D19120800E4FEEEC39F50157589D2
:1008650001758ACB758C7DD28C308DFDC28DC28C85
:030875000E80E60C
:01087800225D
:10080000BC000BBE0029EF8DF084FFADF022E4CCDC
:10081000F875F008EF2FFFEE33FEEC33FCEE9DECA5
:10082000984005FCEE9DFE0FD5F0E9E4CEFD22EDEB
:10083000F8F5F0EE8420D21CFEADF075F008EF2F35
:10084000FFED33FD4007985006D5F0F222C398FD26
:050850000FD5F0EA22C3
:00000001FF
